:020000040800F2
:10000000C80B0220A5020008556F0108AD61010868
:10001000416F010825260108E59201080000000053
:10002000000000000000000000000000E1010008E6
:10003000992E0108000000003D0200080987010810
:10004000BF020008BF020008BF020008BF0200088C
:10005000BF020008BF020008BF020008BF0200087C
:10006000BF020008BF020008BF020008BF0200086C
:10007000BF020008BF020008BF020008BF0200085C
:10008000BF020008BF020008BF020008BF0200084C
:10009000BF020008BF020008BF0200089B2E010833
:1000A000BF020008B98B0108BF020008BF020008A8
:1000B000BF020008BF020008BF020008BF0200081C
:1000C000BF020008BF020008BF020008BF0200080C
:1000D000BF020008BF020008BF020008BF020008FC
:1000E000BF020008BF020008BF020008BF020008EC
:1000F000BF020008BF020008BF020008BF020008DC
:10010000BF020008BF020008BF020008BF020008CB
:10011000BF020008BF020008BF020008BF020008BB
:10012000BF020008BF020008BF020008BF020008AB
:10013000BF020008BF020008BF020008BF0200089B
:10014000BF020008BF020008BF020008BF0200088B
:10015000BF020008BF020008BF020008BF0200087B
:10016000BF020008BF020008BF020008BF0200086B
:10017000BF020008BF020008BF0200080000000024
:10018000BF020008BF020008BF020008BF0200084B
:10019000BF020008BF020008BF020008BF0200083B
:1001A00039680108BF020008412B0108BF0200089E
:1001B000BF020008BF020008BF020008BF0200081B
:1001C000BF020008BF020008DFF810D000F070FD89
:1001D00000480047E9B10108AFF30080C80B0220D6
:1001E0002D4B19680868B0E8F04F80F30988BFF319
:1001F0006F8F4FF0000080F31188704700000000FF
:1002000008480068006880F308884FF0000080F319
:10021000148862B661B6BFF34F8FBFF36F8F00DFF4
:1002200000BF00BF08ED00E0DFF80C00016841F4FA
:1002300070010160704700BF88ED00E0EFF30980B6
:10024000BFF36F8F144B1A681EF0100F08BF20ED1C
:10025000108A20E9F04F106009B44FF0500072B6D8
:1002600080F31188BFF34F8FBFF36F8F62B61DF01D
:100270002BFB4FF0000080F3118809BC1968086857
:10028000B0E8F04F1EF0100F08BFB0EC108A80F3FA
:100290000988BFF36F8F704760000020EFF305807F
:1002A000704700000648804706480047FEE7FEE723
:1002B000FEE7FEE7FEE7FEE7FEE7FEE7FEE7FEE716
:1002C00029880108C90100082DE9F05F05460020D2
:1002D00092469B4688460646814640241BE02846B7
:1002E00041464746224600F022FB53465A46C01A72
:1002F000914110D311461846224600F009FB2D1AF1
:1003000067EB01084F4622460120002100F000FB68
:1003100017EB00094E41201EA4F10104DFDC484622
:1003200031462A464346BDE8F09F0000004870472A
:10033000F8F4010810B50446FFF7F8FF0068005D07
:1003400000F0010010BD10B5441A0346944209D2D2
:100350008418114403E011F8013D04F8013D521ED8
:10036000F9D210BD40EA0104A40703D009E010C986
:10037000121F10C3042AFAD203E011F8014B03F84C
:10038000014B521EF9D210BDD2B201E000F8012B90
:10039000491EFBD270470022F6E710B513460A4605
:1003A00004461946FFF7F0FF204610BD421E12F822
:1003B000013F002BFBD111F8013B02F8013B002B60
:1003C000F9D1704710B5044604E00B7800F8013B02
:1003D00003B1491C521EF8D2204610BD421C10F831
:1003E000011B0029FBD1801A704730B5044600205C
:1003F000034600E05B1C934203D2E05CCD5C401BF3
:10040000F8D030BD10B5044600E0401C0378002B46
:10041000FBD100E0401C521E04D311F8013B0370D5
:10042000002BF7D100210170204610BD034611F8C2
:10043000012B00F8012B002AF9D1184670472DE94D
:10044000F0410546002090460E46044600E0641C3C
:1004500044450BD2285D00F08CFA0746305D00F071
:1004600088FA381A02D1295D0029F0D1BDE8F0815F
:100470002DE9F04791460F4680460446002614F8C1
:10048000015B2DB1FFF752FF0068405DC007F6D158
:100490002B2D02D02D2D18D0641E4A4639462046F9
:1004A00000F06DFA27B13968A14201D1C7F8008088
:1004B00071054FF002040BD54042002803DD19F00E
:1004C00009F90460A007BDE8F08746F48066E4E718
:1004D0000028F8DA19F0FEF804606FF00040F2E747
:1004E0002DE9F05F93460F4680460446002619F03A
:1004F000F1F8D0F80090824614F8015B2DB1FFF7B7
:1005000015FF0068405DC007F6D12B2D02D02D2DC0
:100510001AD0641E0021CAF800105A4639462046F7
:1005200000F02DFA014627B13868A04201D1C7F882
:100530000080DAF80000022809D0CAF8009070059F
:1005400005D54842BDE8F09F46F48066E2E70846DC
:10055000F8E700F0B1BA00F0F7BA2DE9FE4F804697
:1005600081EA0300C00F0C46009021F0004123F007
:100570000045B8EB0200A94105D24046214690460D
:100580001C460B46024623F00040104347D0270D7F
:10059000C7F30A00C3F30A510290401A01904028A1
:1005A0006BDAC3F3130040F4801B0098924620B12D
:1005B0000023D2EB030A63EB0B0B01985946C0F101
:1005C0004002504600F0A4F906460D4650465946F2
:1005D000019A00F0BCF910EB08006141002487EAA1
:1005E000115284EAE7731A4340D0009A62B3019A29
:1005F000012A4FEA075215DC001B61EB02014FF0A4
:10060000004202EA0752CDE90042001C41F5801188
:1006100032462B4600F0E5FA03B0BDE8F08F4046C5
:100620002146F9E7001B61EB0201001C41F5801334
:1006300000185B412018A2F5001747EB030140EAC0
:10064000D570B6196D4111E06D084FEA360645EADE
:10065000C0754FEA0752001B61EB0201001C41F517
:10066000801149084FEA30000019514132462B46AB
:1006700003B0BDE8F04F00F0A5BA00980122400099
:100680000023D0EB020263EBE073009821464FEAAF
:10069000E074B8EB000061EB0401E9E783F000438C
:1006A0005BE781F0004158E72DE9FE4F81EA030442
:1006B00004F0004421F0004100944FF0000B23F0BF
:1006C000004350EA01045ED052EA03045BD0C3F356
:1006D0000A54C1F30A552C44A4F2F3340194A0FB4C
:1006E0000254C1F3130141F48011C3F3130343F423
:1006F000801301FB024400FB034E840A970A44EA7C
:10070000815447EA8357A4FB076802958D0A05FBCD
:1007100007854FEA932C04FB0C542705029D4FEAF2
:10072000065847EA1637B5EB08056EEB070C870E3F
:10073000920E47EA811742EA8312A7FB0201B6EB49
:100740000B0164EB00042B0D43EA0C335E1844EB01
:100750001C50DA465146E7FB0201C5F313044FEA89
:100760000B3343EA14534FEA0432019C43EA060375
:10077000A4F10C040294009CCDE900B400F031FA1D
:1007800003B0BDE8F08F00200146F9E72DE9F04DF8
:1007900081EA030404F0004B21F0004514464FF0B9
:1007A000000A23F0004150EA050220D054EA010279
:1007B0001DD0C5F30A570246C5F31303C1F3130056
:1007C000C1F30A5640F4801543F48013A7EB0608E2
:1007D000101BD64608F2FD3873EB050002D308F172
:1007E000010801E092185B41B8F1000F03DA002024
:1007F0000146BDE8F08D00204FF480110646844686
:100800000EE0171B73EB050705D3121B63EB050303
:1008100006434CEA010C49084FEA300092185B414C
:1008200050EA0107EDD152EA030012D082EA040037
:1008300083EA0501084305D0101BAB4106D2012213
:10084000002306E000224FF0004302E06FF00102B7
:1008500053101AEB06004CEB085110EB0A0041EB69
:100860000B01BDE8F04D00F0ADB90EB540F23342DA
:1008700002920022CDE90022134600F0B2F903B043
:1008800000BD000030B5041E71F1000404DB4FF020
:100890000044404264EB0101141E73F1000405DBC7
:1008A0001C464FF00043524263EB04038B4208BFE7
:1008B000824230BD30B5041E71F1000404DB4FF0FC
:1008C0000044404264EB0101141E73F1000405DB97
:1008D0001C464FF00043524263EB0403994208BFA9
:1008E000904230BD30B50B46014600202022012445
:1008F00009E021FA02F59D4205D303FA02F5491BEE
:1009000004FA02F52844151EA2F10102F1DC30BD03
:10091000202A04DB203A00FA02F1002070479140BF
:10092000C2F1200320FA03F3194390407047202AB4
:1009300004DB203A21FA02F00021704721FA02F389
:10094000D040C2F120029140084319467047202A46
:1009500006DBCB17203A41FA02F043EAE07306E0E7
:1009600041FA02F3D040C2F12002914008431946F7
:100970007047A0F14101192900D8203070472DE9B6
:10098000F05F82460078002715468B460AF1010485
:10099000B946302801D09DB113E014F8010B0127AE
:1009A000782803D0582801D045B10AE00DB1102DA8
:1009B00007D10027102514F8010B02E0082500E0FC
:1009C0000A250026B0460EE005FB080005FB06F1EF
:1009D000012701EB10461FFA80F8B6F5803F00D3DF
:1009E000B94614F8010B294600F074F90028EBDA37
:1009F000BBF1000F05D00FB1641E00E05446CBF8E8
:100A00000040B9F1000F06D018F064FE0221016029
:100A1000C81EBDE8F09F48EA0640FAE70FB400237D
:100A200000B589B00CA900910B996FF00042CB6022
:100A30001E4B06931E4B07930423CDE901321D4A3A
:100A4000089202466B46002000F0E6F909B05DF816
:100A500014FB70B586B006464FF0FF300091CDE92B
:100A60000101002015460C4604903246694604A850
:100A7000FFF7D4FF02460498211825B108B10846B3
:100A800000E020462860049800280DD0002A02DDEE
:100A90000098884208D0081B0094CDE90104324632
:100AA000694604A8FFF7BAFF06B070BD51100008F0
:100AB0006F100008350300082DE9F04791460E46F7
:100AC00080460446002514F8017B2FB1FFF72EFC69
:100AD0000068C05DC007F6D12B2F02D02D2F1ED08D
:100AE000641E4A463146204600F0D2FA26B13268EA
:100AF000A24201D1C6F800806A054FF0020418D561
:100B00000023D0EB030563EB01025D1B934109DB7E
:100B10000023D0EB030063EB0101BDE8F08745F44F
:100B20008065DEE718F0D6FD046000204FF000413C
:100B3000F3E7021E71F10002EFDA18F0CBFD04605A
:100B40004FF0FF304108E8E72DE9F05F93460F468C
:100B500080460446002618F0BDFDD0F8009082467D
:100B600014F8015B2DB1FFF7E1FB0068405DC007A1
:100B7000F6D12B2D02D02D2D1FD0641E0021CAF8D6
:100B800000105A463946204600F082FA024627B144
:100B90003868A04201D1C7F80080DAF800000228C6
:100BA0000ED0CAF8009070050AD500200346D2EB9B
:100BB000000063EB0101BDE8F09F46F48066DDE7CD
:100BC0001046F8E710B5141E73F1000408DA401C53
:100BD00041F1000192185B411A4301D120F001005C
:100BE00010BD2DE9F04D92469B4611B1B1FA81F24C
:100BF00002E0B0FA80F220329046FFF789FE044608
:100C00000F4640EA0A0041EA0B0153465A460843A0
:100C100013D0114653EA010019D0C8F140025046E2
:100C2000FFF785FE05460E46504659464246FFF7F9
:100C30006FFE084305D0012004E020463946BDE898
:100C4000F08D0020054346EAE0762C4337430A98AE
:100C50006305E40AA0EB08000022FD0A44EA4754B9
:100C60000A3002D500200146E9E701051019694163
:100C7000DDE9084500196941BDE8F04DA2E7C1F37F
:100C80000A52C1F3130140F2FF3341F480119A423A
:100C900002DA00200146704740F233439A42A2F242
:100CA000334202DC5242FFF742BEFFF731BE000082
:100CB000064C074D06E0E06840F0010394E80700A9
:100CC00098471034AC42F6D3FFF782FAC49B02086F
:100CD000E49B02083A2800D2303820F02002412A52
:100CE00001D3A2F13700884201D34FF0FF307047A3
:100CF0002DE9FF4F087883B09946FF2805D0491C9D
:100D00002D2804D00024002008E000200BE001245E
:100D1000F9E700EB800003EB4000491C0B78FF2B48
:100D2000F7D104B1404200230293147819461D46BE
:100D30002D2C01D02B2C04D1521C2D2C13D000248F
:100D40000294AA461478FF2C0FD00A25A3FB05783D
:100D500001FB05814FF0000C03FB0C11521CE31941
:100D60004AEB0101EEE70124EAE7814453EA01007E
:100D700002D019F5C87F06DA03980021C0E90011F6
:100D800007B0BDE8F08F0025AE4E2F46DFF8B882E1
:100D90001846FFF76AFDCDE90001B9F1000002DA5B
:100DA000C9F1000400E004460023A74A1AEB030B34
:100DB00042EB045A12E0E00707D02A463346384691
:100DC0004146FFF771FC074688462A4633461046DF
:100DD0001946FFF769FC05460E466410002CEAD15F
:100DE000DDE90001B9F1000F5A46534606DAFFF774
:100DF000CDFC3A464346FFF7C9FC05E0FFF754FC3B
:100E00003A464346FFF750FC029A0AB181F000418E
:100E1000039AC2E90001B3E72DE9FF4F1F468DB0E9
:100E2000D7E901464FF0FF382E2045464FF0000924
:100E30000B90B9696D1C0E988847396A82468847BD
:100E40000028F6D1BAF1FF3F0AD024F4D064002E76
:100E500011DDBAF12B0F08D0BAF12D0F0BD102E042
:100E6000404611B08DE744F48064B9696D1C0E985A
:100E700088478246761E6946600501D52D2000E030
:100E80002B208DF8000001F1010B0DF1200809E085
:100E9000B9696D1C0E98884782460F9844F4007417
:100EA000761E0560002E02DDBAF1300FF0D00B99EE
:100EB0008A453ED144F0800406E00F99681CA9F1F0
:100EC000010944F400740860B9696D1C761E0E981F
:100ED000884782463028F0D02BE00B998A4505D10F
:100EE000200603D444F08004761E18E0504619F022
:100EF000C3F908B30DF11301761E44F400748B4559
:100F000008D2AAF130000BF8010B200607D5A9F191
:100F1000010003E0200602D409F101008146A0058A
:100F200002D50F99681C0860B9696D1C0E98884736
:100F30008246002ED1DC53E0002E51DDBAF1650F60
:100F400002D0BAF1450F4BD1A00549D5B9696D1C46
:100F500024F44074761E0E9888478246002E0CDDDD
:100F60002B2804D0BAF12D0F07D144F48074B9694D
:100F70006D1C0E9888478246761EE00501D52D210E
:100F800000E02B2108F8011BCDF82C8021E00DF1A9
:100F90002901761E44F4007488450CD2AAF1300071
:100FA00010F0FF0088F8000002D10B99884509D99C
:100FB00008F1010806E0E00501D5244801E042F20D
:100FC0000F708146B9696D1C0E98884782460F984C
:100FD0000560002E04DD504619F04EF90028D6D1E8
:100FE000F9690E988847FF208BF8000088F8000008
:100FF0000020069007904B466A4608A906A8FFF70E
:1010000077FEA00502D46FF001002AE714F0240F48
:101010000AD0E00714D1DDE906123868031D3B60F1
:101020000068C0E900120BE0DDE9060100F091F86C
:101030000146E00704D13868021D3A60006801608B
:1010400028460EE7000014400000F03FF1D8FFFFF3
:10105000426842B1016811F8013B23B1521EC0E958
:101060000012184670470121C160881E704742680F
:101070005AB1C368016843B983688B4205D0491EE1
:10108000521CC0E90012002070474FF0FF3070473B
:101090002DE9F74F4FF00009009C1546CA4614F899
:1010A000010B302801D0ADB115E014F8010B4FF061
:1010B0000109782803D0582801D04DB10BE00DB1BB
:1010C000102D08D14FF00009102514F8010B02E093
:1010D000082500E00A2500273E46B8464FEAE57B92
:1010E00016E0A5FB07230BFB073105FB080005FBFA
:1010F0000616010C571846F100061FFA80F8381E34
:101100004FF0010976F5803000D3CA4614F8010B80
:101110002946FFF7DFFD0028E3DA019838B1B9F17D
:10112000000F01D0641E00E0009C01980460BAF139
:10113000000F08D018F0CEFA02210160C81E014647
:1011400003B0BDE8F08F310441EA174148EA074097
:10115000F6E701F0004330B421F0004150EA01020B
:1011600006D00A0DA2F56072C1F31301002A02DC59
:1011700030BC00207047440F44EAC104C100E018AD
:1011800030BC00EBC250AFF300800029A8BF70470D
:10119000401C490008BF20F00100704710B4B0FAAD
:1011A00080FC00FA0CF050EA010404BF10BC704748
:1011B00049B1CCF1200421FA04F411FA0CF118BF62
:1011C000012121430843A3EB0C01CB1D4FEA006131
:1011D0004FEA102042BF002010BC704700EBC35004
:1011E00010440029A4BF10BC7047401C490008BF30
:1011F00020F0010010BC704770B58C1810F8015B2E
:1012000015F0070301D110F8013B2A1106D110F89F
:10121000012B03E010F8016B01F8016B5B1EF9D1A3
:101220002B0705D40023521E0DD401F8013BFAE729
:1012300010F8013BCB1A921C03E013F8015B01F894
:10124000015B521EF9D5A142D8D3002070BD000029
:1012500070B5456882B004460146284607F0D4FEC2
:1012600068B123680F2B59D00BDD282B45D0B3F57F
:10127000107F3CD0112B49D0204608F093F902B0E2
:1012800070BD0B2B20D00E2BF6D1E3681A6859687D
:101290000D2A53D0202A31D1002928464FF48071DD
:1012A0007DDD07F0A1FF284601F090FD02AB846AC6
:1012B00043F8040D184601F05DFEA207DFD528466D
:1012C000012109F0EBFCDAE7284602AD01F07EFDD2
:1012D00003466830019301F057FB55F8040D0321D4
:1012E0006C3001F077FB284601F044FEC4E7324B36
:1012F000214628461B689847C1E7E368002BBBD10D
:1013000028464FF4807107F063FEB5E72B4B1B684E
:10131000002BB4D0214628469847B0E7284601F074
:1013200055FD034602A840F8043D5B6E1C6801F0C1
:1013300021FE002CA3D02846A047A0E70029DDDD30
:101340004FF48071284607F04FFF02AC284601F0A9
:101350003DFD866A44F8040D204601F00BFEB107FE
:1013600003D50121284609F099FC4FF480712846E5
:1013700007F02EFE284601F029FD034620461E8E6A
:101380009C6A019301F0F6FD304604F025FEA307A8
:101390007FF575AF2846022109F080FC6FE707F062
:1013A00017FE284601F012FD034602A89C6A1E8E15
:1013B00040F8043DE6E700BF08010020F4050220E4
:1013C0002DE9F04FB0F90A6087B0B0F90C708B4688
:1013D00085691644B0F90E801F44B0F910A0044688
:1013E000B0F908904C3502F00FFEDFF8CCC04FF09A
:1013F000000E4246CDF800B03946304603955346BC
:10140000CDF808C0CDF804E007F0D0FF804628B939
:1014100005F026F8404607B0BDE8F08F01F0D6FC95
:10142000244F49460DF11809102205903E1D07F082
:10143000F9FE59F804ED0FCE0EF134050FC50FCEAD
:101440000FC596E80F0085E80F007B6B4846CEF885
:10145000643001F08FFD7B6B40465B68984704F079
:10146000FFFF656802F0D0FD404601F0AFFC034687
:1014700004A89C6E0493059401F07CFD294648461F
:1014800006F08EF90028C3D0059B9C4209D0404647
:1014900001F09CFC059A034604A89A66049301F0A7
:1014A00069FD404609F072F804F0DAFF404607B0E3
:1014B000BDE8F08F0801002051120008974A8168AA
:1014C00043682DE9F041044688B052F82160122BA0
:1014D00040D8DFE803F0B03F3F3F3F0A973F3F3F30
:1014E0003F3F3F3F3F3F3F3F4300F569002D40F006
:1014F000B580371F57F8040F04F0EAFC04F114011B
:1015000020690EC928445B1B521B2944013502F097
:1015100099FA022DEED162693169E3690191911C5A
:10152000F76813442069A2695B1028440097521B96
:1015300002F058F9E1696269B0698B1E1144A26931
:101540000190491020697669521B013128440096A8
:1015500002F048F9002008B0BDE8F081006801F011
:1015600035FC876E0490002F00F0D080A368B0F99E
:101570005C80002B00F0C880032B14BF00230223E3
:1015800000EB8303406D08AC1D6C04F0B9FC2846E9
:1015900004F09EFC06A802F0E1FBB28BBDF8181027
:1015A00006A8BDF81C301144BDF81A509A1ABDF8AF
:1015B0001E30ADF81810023554F8101D023BADF87E
:1015C0001C20B1F96020B1F95E10ADF81E30ADF805
:1015D0001A5003F0D3FF204608AC01F0CBFC0220E8
:1015E00004F0E2FC384601F0F1FB06A9424644F85B
:1015F0000C0D01F0F5FF204601F0BCFC002008B006
:10160000BDE8F081006801F0E1FB049020680AF079
:10161000E9FDB8B9049B5D6F05B9DD6E04A801F062
:10162000A9FC0023284621681A4601F07DFF00200E
:1016300008B0BDE8F081006809F0E4FD002008B0C2
:10164000BDE8F081A368002B64D1049A136F002BCE
:1016500014BF6C23682313445D68DFE7B268B046AB
:10166000C3690027039271688269029158F80409DE
:10167000009561690190206905F0A6FC58F8040FF7
:1016800004F026FCF369A26921696069D21A194441
:10169000384402F081F9F369A2692169E069D21A3C
:1016A0001944C01B02F078F9F369E26961692069A5
:1016B000D21A1944384402F00DFAA069F369E269BC
:1016C000C01B61690137D21A194402F003FA022FD4
:1016D000D4D1B06804F0FCFBF16922696569901C03
:1016E000E3690A445B1A2944013A02F04BFAF169B2
:1016F000A0696569E369821E401A5B1A29440130BA
:1017000002F040FAF56906E7012339E704A801F081
:1017100031FC1FE7049BDD6E80E700BFB491020837
:1017200000B9704730B5044683B00D4602F06CFC3A
:10173000204601F04BFB02AB456543F8040D18460B
:1017400001F018FC204608F021FF04F089FE03B0E8
:1017500030BD00BF70B582B018B90125284602B06F
:1017600070BD04460D4602F04FFC204601F02EFBF2
:101770000346866E68468DE8480001F0FBFB29466B
:1017800001A806F00DF800280CBF012500250FD098
:10179000019B9E4209D0204601F018FB019A0346A6
:1017A00068469A66009301F0E5FB204608F0EEFEDD
:1017B00004F056FE284602B070BD00BF2DE9F04788
:1017C000466886B00546304601F000FBC36D0090C8
:1017D000D0F88840D0F88070D0F86880B0F87C905D
:1017E000002B64D0D3F800A0684601F0C3FB14B905
:1017F00009E024683CB16368284698470028F8D07F
:1018000006B0BDE8F0872B68172B00F0A5801DDC23
:101810000F2B00F08D807DDC0B2B00F0BF800D2B9B
:101820000AD119F0080F07D1EB68DB6823B11B7AE6
:1018300013B1304609F0FAFB3046294607F0E4FBC5
:101840000028DDD0284607F0ADFED9E7262B75D05D
:101850002FDC1E2B00F0AE80202BEDD1EC68002C8D
:10186000EAD0314660680AF0A3FC002800F0C0808E
:10187000304601F0ABFAB0F87C3002460190180710
:1018800040F12D8101A801F075FB314660680AF036
:101890007DFC0028D0D0304601F098FA62680346FB
:1018A00001A80193C3F8802001F064FBC4E79A46C5
:1018B0009AE72A2B65D0B3F5107FBDD106AC304630
:1018C000D5F80C8001F082FAB0F87C7044F8140D61
:1018D000204601F04FFBEB68002B91D098F80830C0
:1018E000002B00F0AB80380740F1B780304607F09E
:1018F00015FD07F48873B3F5887F81D107F0800365
:101900009BB2002B7FF47CAF41463046052209F0A4
:101910003BFB75E7112B22D0142B8DD1304601A94A
:1019200000F09AFB02ABEA6803CB1060516067E7F6
:10193000BAF1000F80D03046D0477DE7EB68022B2C
:101940007FF45EAF272206A9A86841F8142D0396FC
:1019500004930AF053FD53E7C5F80C8050E7EC6898
:10196000304601F033FA01902389012B05D1B0F8FC
:101970007C3043F48073A0F87C3001A801F0FAFABF
:101980005AE7304601F022FAEB680090002B68D04D
:10199000C0F88430684601F0EDFA31E7304601F0D6
:1019A00015FA03467030009300F0EEFF684601F030
:1019B000E1FA41E7EC68012C57D0002E3FF420AF4C
:1019C00002F022FB304601F001FAB0F87C3002460A
:1019D00001901C0706D523F008033046A2F87C309E
:1019E00008F0D4FD01A801F0C5FA04F039FD07E7BD
:1019F000304601F0EBF9B0F87C300246019019074F
:101A000006D523F008033046A2F87C3008F0BEFD6E
:101A100001A801F0AFFA314620680AF0B7FB0028B0
:101A20003FF40AAF304601F0D1F92268034601A81D
:101A30000193C3F8802001F09DFAFDE6304601F0E5
:101A4000C5F903462046B3F87C20019322F4807246
:101A5000A3F87C2001F08EFAD2E6304609F0E6FACF
:101A600044E7D0F88430EB6094E7384609F0AEF8EC
:101A700020B3384609F0DAFA384608F05DFCB0B910
:101A800026B9002F7FF4BCAEEF60B9E602F0BCFAD5
:101A9000304601F09BF9B0F87C30024601901907FE
:101AA00025D501A801F066FA04F0DAFCE9E7214641
:101AB000384607F099FB002EE3D0E7E7404609F0EF
:101AC00021FB0746304601F081F903466846C3F81A
:101AD0008070009301F04EFA002ED2D0D6E743F08A
:101AE00008033046A2F87C3008F050FDCAE643F007
:101AF00008033046A2F87C3008F048FDD1E700BF6B
:101B00002DE9F04F0F46B0F90C108FB0B0F90A6014
:101B100001EB030BB0F90830856916440493436860
:101B20006035B0F90E80B0F91090B0F812A00593AE
:101B300002F06AFA4B4C4FF4805E039559460097C9
:101B400030464B4642460294CDF804E007F02EFCA6
:101B5000054628B904F084FC28460FB0BDE8F08F94
:101B6000DFF808910EAE01F031F9049930220690A9
:101B700007F058FB56F8207DCE464FF0000807F1DD
:101B80003404BEE80F000FC4BEE80F000FC49EE887
:101B90000300189B84E803007B663046D9F82830A0
:101BA00041F28274A7F87CA0FB65C7F88080C7F873
:101BB0006C80C7F8888001F0DDF909A928462A4F12
:101BC00000F04AFABDF92AE0BDF92810BDF92C2031
:101BD000BDF92E300846521A0194CEEB030371462C
:101BE0000132CDF80C8001330095029707F0DEFB3F
:101BF000D9F82830044628465B689847284601F003
:101C0000E5F8034630469C66069301F0B3F9284692
:101C100007F01EFE02F0F8F9284601F0D7F8034657
:101C200007A81A6F0793089201F0A4F9059908A86C
:101C300005F0B6FD38B904F013FC04F011FC284699
:101C40000FB0BDE8F08F284601F0C0F8089A0346AF
:101C500007A81A67079301F08DF9284608F096FC4B
:101C6000E9E700BFBD170008792200084001002005
:101C70002DE9F041044690B0006800F0D5F9B04B72
:101C80006668A3F12C05002808BF1D461C2E00F233
:101C9000F780DFE816F02200F500F500F500F5000A
:101CA0003500F500F500F500F500F5005100F500F0
:101CB000F500FA00F500F500F5000E01F500F5005D
:101CC00048014A014C014E01F500F500F5001D00E8
:101CD0006E69304610B0BDE8F081206801F076F8FA
:101CE000034610A8B3F85A2040F82C3D42F00C02ED
:101CF000A3F85A2001F03EF9206809F083FAE8E7DA
:101D00002A690026B4F910300192B4F9147018460B
:101D1000EA68B4F918503946B4F91C40ADF81C30E3
:101D2000009223462A46ADF81E70ADF82050ADF85B
:101D3000224001F057FDCCE723681C221846089288
:101D4000079301F043F8034607A805931B6D9847D6
:101D5000064605A801F00EF9012E40F32781A96877
:101D60003346626902916868A16901902F68206911
:101D7000009705F025F82769A3693744C6EB0308E7
:101D8000286804F0A5F842463946606901F004FE6F
:101D9000686804F09DF8606942463946013001F0F8
:101DA000FBFD6B6A022B00F3F4802A6A964217DA75
:101DB0006769012E206907F1020840F32A81024475
:101DC000374430444146013A3B4601F0DBFEA0690E
:101DD000821B3B46EF694146C01B013001F0D2FE39
:101DE000012E40F3138163691E44E7692868013FAF
:101DF00004F06EF8314620693A4601F06BFE3A462F
:101E00003146A06901F066FEE769686804F060F891
:101E1000023F206931463A46013001F05BFEA0697D
:101E20003A463146013801F055FEEB69022B40F38A
:101E30008280AB6AE769022BA868CCBFFF1A023F19
:101E400004F046F8EA69022A00F39A802B6A022B12
:101E500000F38C80286804F03BF8A2692169E069EE
:101E600001F09AFD686804F033F8A2692169E0691D
:101E7000013A0131013801F08FFDAF6A022F61DCB8
:101E80000026304610B0BDE8F08104F11401276946
:101E9000A8680026ADF81C700EC9ADF81E10ADF88C
:101EA0002020ADF8223004F013F807A801F096FEC8
:101EB0000FE7298B2269A3690A4465695B1AE16906
:101EC0002068ADF82030ADF81C20ADF81E50ADF8FC
:101ED000221000F07BFF036F0590FBB1022004F09D
:101EE00063F8059AB2F87C30C3F3C0030E3302EBFB
:101EF0008303986803F0ECFF059B586B04F000F82F
:101F0000059B186F00F062FF059B07A90690B3F9C7
:101F10005A2001F065FB06A801F02CF805A8002660
:101F200001F028F8D5E6AE6AD3E6EE69D1E62E6A6E
:101F3000CFE66E6ACDE62B6A022B8BDD79E700BF18
:101F40006C020020D4F81C800026A2692169A868D0
:101F5000951E8C1C03F0BCFFC7EB08012A462046E7
:101F6000A8F10203013101F00DFEB2E6A0693B4683
:101F7000EF693146821EC01B013001F003FE69E7A4
:101F800020693B46314602440230013A01F0FAFD35
:101F90005CE7A86803F09CFF636938466F6A991C88
:101FA00042463B44013B01F0EDFD19E7286803F090
:101FB0008FFF2269EB69114660691A44013A01F00A
:101FC000EBFCA369E9691A466069591A013101F00D
:101FD000E3FC676920690137394601F009FD39469C
:101FE000A06901F005FD686803F072FF20693946B9
:101FF000013001F0FDFCA0693946013801F0F8FC20
:102000002769A3690237A3F10208B9E666690236B7
:10201000EBE60244434602304146013A474601F0AE
:10202000B1FDA069821ED4E610B5044682B080B12D
:1020300001F0EAFF204600F0C9FE02ABB0F87C4098
:1020400043F8040D1846C4F3C00400F093FF04F0F5
:1020500007FA204602B010BD2DE9F04F89B00746BF
:102060000D4600F0B3FE034601213846DA6D0593B4
:102070009468236898472368032180463846984728
:102080002368022183463846984723680021824608
:10209000384698478146059809F09EFC0646059803
:1020A00009F0A2FC03460598448E04F02004A4B273
:1020B000B4B1B0F95420B0F95840002A4AD091B2D6
:1020C000C06E0C44A4B280B103910292019307F058
:1020D0006FFE019B0FFA80FC029A80B2039905E023
:1020E00021462246C06E0028EED184461FFA89FEA2
:1020F000013E013B0FFA88F8CBEB060674440EF163
:10210000FF3ECAEB030336B2044471446B812A805C
:1021100005A8A5F802C0EC8069822E812E82A5F860
:102120000480A5F80C80A5F80E9000F023FF08AA03
:10213000B5F910403846B5F90C3006A942F8044DFF
:10214000069300F04BF8069A079BAA812B8209B0F0
:10215000BDE8F08F406B019301F06AFE821C019B89
:10216000059891B212B20C44A4B2BBE708B5438EF5
:1021700003F020039BB24BB10246B0F9540000B10A
:1021800008BD506B01F054FE023008BD184608BD72
:1021900070B58AB00C46064600F018FE0AABC26D58
:1021A00043F8280D1846956800F0E4FE0196032CCC
:1021B00005D8DFE804F00F0C0902172302936B68BF
:1021C00001A898470AB070BD15230293F7E71623BC
:1021D0000293F4E718230293F1E700BF2DE9F043DF
:1021E00083B088460446914600F0F0FD034602A8FD
:1021F000DA6D40F8083D9568B3F90070B3F90260F4
:1022000000F0B8FE2B68204600219847054620467E
:1022100007F034FD68B3044607E001A800F0AAFE09
:10222000204607F069FD044618B3204600F0CEFDB5
:10223000B0F9023001909B1B9D42EED1836A1B06D0
:102240000BD5B0F90030D9F80020DB1B934203F125
:10225000FF33E2DCC9F80030DFE7B0F90430D8F82A
:102260000020DB1B934203F10103A8BFC8F8003034
:10227000D3E703B0BDE8F0832DE9F043456887B0AC
:102280000446284607F046FD074600F09FFD03463A
:1022900006A85E6E40F8143DD3F84880D3F88090CD
:1022A00000F068FE23680E3B232B3FD8DFE803F0E5
:1022B00035463E3E3E3E12123E123E3E3E3E3E3EC3
:1022C00018243E3E2B3E3E3E3E3E3E3E3E3E3E3E81
:1022D0003E3E3E30204607F065F907B0BDE8F0838A
:1022E000E368002BF9D0B9F1000F3BD04D4539D050
:1022F000484608F09BFEF0E72146384606F084FE8B
:1023000007B0BDE8F083C4F80C8007B0BDE8F083E7
:102310000023E36007B0BDE8F083E3685A68002A51
:1023200004DD1B68092B1DD00A2B1FD0002ED1D035
:1023300020466760B04707B0BDE8F0836FF0704398
:10234000984504D0404606F0B3FA00F0A7FE002EF0
:10235000C3D002AF94E80F0087E80F00384603951A
:10236000B047BAE7284608F0CDFEB6E7284608F0A1
:1023700011FFB2E7204B70B51E6801F045FE1F4CFF
:102380000025304606F094FA04F06AF81C4B1E68EB
:1023900001F03AFE304606F0C5FA04F061F801F0AB
:1023A00033FE012223681A7604F05AF801F02CFE5D
:1023B00023689D8504F054F801F026FE23685D85AE
:1023C00004F04EF801F020FE284606F0DDFA04F095
:1023D00047F80C4B1D6801F017FE236805B1DD615D
:1023E00004F03EF801F010FE236800229A76BDE862
:1023F000704004F035B800BFF0000020F400002069
:10240000EC000020E8000020014B83E80300704747
:1024100094040220014B83E8030070479C040220CF
:10242000014B83E803007047A4040220704700BFFB
:10243000704700BF2DE9F04F5C4E8DB03368DA690C
:10244000B3F92250D469B4F80CB0834500F29780F8
:10245000E1898142C0F093802168CBEB000B0891A9
:102460004FF0FF310A91BBF1FF3F00F0828092F8FC
:102470001880A27CB3F92A10B3F9249018FB02F358
:10248000084607911F4694F810A006F07DFAD6F88A
:1024900000E008994346DEF838C05246099007FB31
:1024A0000B10DEF81CE00B97012704904946CDF88D
:1024B00014C0284694F812C00297CDF80CC09EF8BC
:1024C0001BC0DFF8E8B0CDF804C09EF81AE0CDF8E4
:1024D00000E005F0C9FB0A9F7B1C25D0079941F05D
:1024E000020006F051FADBF800100B9A43460898F8
:1024F000D1F838C002FB0700D1F81CE00127CDF865
:1025000014C00490524694F812C0494602972846D7
:10251000CDF80CC09EF81BC0CDF804C09EF81AE0A0
:10252000CDF800E005F0A0FB3368DFF88080DB69C0
:102530005A7E1B7E9A4215D9079B022B12D083F03C
:10254000040006F021FAD8F800302846DB691F7E27
:10255000D97E9A7E5B7E07FB01910AFB02524B44B7
:1025600005F08AFD9DF8240006F00EFA3368B3F9F1
:102570002250627C15445D840DB0BDE8F08FA168E7
:102580000029F6D00F88B842F3D3B1F802E08645AF
:10259000EFD3C01B4968676880B2089701EB8007DA
:1025A00031F920B0B7F902100A915CE7F40000207D
:1025B000044B1B68DB69DB6909B11A7C0A60587C33
:1025C000704700BFF400002002230B80704700BF5B
:1025D000C3699A898A4202D8DA898A4211D29868F4
:1025E00018B10388994201D20020704742888A427C
:1025F000FAD3C91A436833F82100C043C0F3C0308E
:1026000070470120704700BF2DE9F04F3A4D89B067
:102610002B68DA69B3F92A90D36943B11A889042DA
:1026200002D35988814205D29B68002BF6D109B0AC
:10263000BDE8F08F841AD3F80480484608EBC4063E
:1026400096F802B006F0A0F98246286818F83420FF
:102650004FF0010EC769D0F838C0B0F92410B0F9B6
:1026600022003B7E0790CDF814C07068CDF80CB006
:102670000490CDF808E097F81BE00798CDF804E047
:10268000BF7E009705F0F0FA2B68DA69537E177E5B
:10269000BB4223D9B9F1020F07931FD092F81BB0A8
:1026A00001F060FB814601F027FB03F011FC124BA7
:1026B00018F834E01868079BC169B0F92240CA7E57
:1026C000B0F9241020460EFB02420BFB03130BFB58
:1026D000071105F0D1FC484603F0FAFB504606F01E
:1026E00053F92B687178D8695A8C807E00FB0122DF
:1026F0005A8409B0BDE8F08FF4000020114B1B682C
:1027000070B4DD69EB6943B11A88904202D35C88EA
:10271000844205D29B68002BF6D1184670BC7047E6
:10272000821A5E68AC7E06EBC2035B7813FB04F092
:102730000029F3D016F8323014FB03F370BC0B60A1
:10274000704700BFF400002001230B80704700BFDA
:10275000C06950B103888B4202D843888B4203D2B0
:1027600080680028F6D17047012070472DE9F047B6
:10277000244F3D68002D3FDD234EC5EB4515DFF8A6
:102780008C804FF0000A3468D8F8009004EB85057F
:102790000C340C35A4F10803742249461846FDF7A1
:1027A000D2FD221F2063A06344F80CAC6263E46096
:1027B0007C34A542EED10024254603E082B13A687C
:1027C000954213DA10F076FF336801351A5919195A
:1027D0007C349042F2D10431C8F80010BDE8F08793
:1027E00008600431C8F80010BDE8F08719460431CC
:1027F000C8F80010BDE8F087034BDFF810801968B7
:10280000E9E700BF8801002068060220F4000020EC
:10281000F8B5184F184B3846184E40F80C3F04F0E6
:10282000ABFF3468C4EB4414A400204600F004F964
:10283000134B224600211B68386098474FF0FF3346
:10284000736010F041FF3368002B0FDD0024254634
:1028500003E062B133689D4208DA10F02BFF3B6859
:1028600001351A5923447C349042F2D1F8BD1860E6
:10287000F8BD00BF68060220610E01088801002033
:102880009401002000B9704710B5044601F0BCFB6C
:1028900020460AF091F8044603F0E2FD204610BD00
:1028A000F8B5054601F0B0FB25B9002403F0D8FDCA
:1028B0002046F8BD01F0A8FB28460AF07DF8044642
:1028C00003F0CEFD002CF0D0144E2A46144F002108
:1028D000F069736B013003EBC405F06113F8340049
:1028E000013003F834006D683B6805F10800984733
:1028F0002968726B12F83130012B01D9F06930B9B7
:10290000013B02F8313003F0ABFD2046F8BD013841
:10291000013BF06102F83130F5E700BFC00702204B
:102920009401002021F00301014B83E8030070476C
:10293000AC04022000B9704770B50D4C054601F09B
:1029400063FBEE00636B33445968486809F086FE08
:102950006368626B0021606A0133164463607060D3
:1029600002F835106562BDE8704003F079BD00BF24
:10297000C007022028B1034AD36B036003B158603B
:10298000D0637047C0070220F8B5054601F03CFB54
:102990002C68B4B10E4E01F037FBE700736B3B447B
:1029A0005968486809F05AFE7368726B0020716AB2
:1029B000013317447360796002F83400746203F0E5
:1029C0004FFD00232B60BDE8F84003F049BD00BF78
:1029D000C007022000292BDD2DE9F04700258A469B
:1029E000041F144FA94601F00FFB54F8046F013582
:1029F000B6B101F009FB7B6B4FEAC6084344596846
:102A0000486809F02BFE7B68796B7A6A0133884449
:102A10007B60C8F8042001F836907E6203F020FD48
:102A2000C4F8009003F01CFDAA45DCD1BDE8F08796
:102A3000704700BFC0070220F8B58B4E044696F8D9
:102A40002830002B2FD00334356CF26B24F00304B4
:102A50000434A54238BF254662B152F8043C1446FE
:102A60009D4204D114E054F8043C9D4210D02468E7
:102A7000002CF8D1F368B46B1C4454F8041C611AA0
:102A80000B68002B68D14B689D426FDD002408E085
:102A900023680BB161685960616801B10B60A242A3
:102AA00056D02046F8BD714B01219A6886F828104F
:102AB00058680AB982089A605A27102220254FF0D8
:102AC000400E3762802732644FF48072B5644FF451
:102AD00000751968C6F850E04FF4806EB7654FF482
:102AE000006732664FF48052B5664FF40055A1F18D
:102AF0001403C6F870E0B7674FF4804EC6F8802024
:102B00004FF40047C6F888504FF480324FF4003538
:102B10000344C6F890E04FF4802EC6F898704FF446
:102B20000027C6F8A0200222C6F8A8500125B163EC
:102B30007363C6F8B0E03261F060C6F8B8705D60EB
:102B40007562756009F08AFD0CF0E4FB35637AE785
:102B500023682046F363F8BD00200EF087FC54F88C
:102B6000041C611A0B68002B90D18CE7581BD6F817
:102B7000B8703D4A041DBB420C4472D2D2F8B0700A
:102B8000BB426CD2D2F8A870BB4266D2D2F8A07019
:102B9000BB4260D2D2F898709F425AD9D2F8907056
:102BA000BB4254D2D2F88870BB424ED2D2F8807069
:102BB000BB4248D2926F934243D2376F2A4ABB42FC
:102BC0003DD2976EBB4238D2176EBB4233D2976D5F
:102BD000BB422ED2176DBB4229D2976CBB4224D286
:102BE000126C93420CD2F2687369521B2B44F26050
:102BF000736110B944F8045C53E709F02FFDF9E75D
:102C000000223768D1F808E0FF1ACB683760BEF1C0
:102C1000000F01D0CEF8043013B1C3F800E0E2E7B2
:102C200006EBC202C2F844E0DDE70122E9E7022236
:102C3000E7E70322E5E70422E3E70522E1E70622CE
:102C4000DFE70722DDE70822DBE70922D9E70A22CE
:102C5000D7E70B22D5E70C22D3E70D22D1E70E22CE
:102C6000CFE70F22CDE700BFC0070220AC0402204F
:102C7000F8B54A4C94F82830002B3DD0D4F8BC303D
:102C8000464A3BBBD2F8B43023BBD2F8AC300BBBC6
:102C9000D2F8A430F3B9D2F89C30DBB9D2F8943032
:102CA000C3B9D2F88C30ABB9D2F8843093B9D36FB2
:102CB00083B9536F73B9E36E63B9536E53B9D36D70
:102CC00043B9536D33B9D36C23B9536C13B96FF057
:102CD0000B00F8BD9B68002BF9D0002201E09B6837
:102CE00043B159681046914201D90A4608469B688B
:102CF000002BF4D10C38F8BD294B01219A6884F8D7
:102D0000281058680AB982089A605A26102220258D
:102D100040272662802622644FF48072A5644FF417
:102D20000075196827654FF48067A6654FF4006643
:102D300022664FF48052A5664FF40055A1F11403AA
:102D40002767A6674FF48047C4F880204FF40046F9
:102D5000C4F888504FF480324FF400350344C4F86F
:102D600090704FF48027C4F898604FF40026C4F8A0
:102D7000A0200222C4F8A8500125A1636363226148
:102D8000E060C4F8B070C4F8B8605D60656265600A
:102D900009F064FC0CF0BEFA25636FE7C00702205F
:102DA000AC04022030B1044B5B6B03EBC000436802
:102DB00058680C38704700BFC0070220024A936968
:102DC00001339361704700BFC0070220084AD169F0
:102DD000536B013110B4D16103EBC00413F8302000
:102DE000013203F8302060685DF8044B083070470A
:102DF000C0070220F8B5584C01F006F994F82830C5
:102E0000002B57D0D4F8BC30534A9BBBD2F8B43017
:102E100083BBD2F8AC306BBBD2F8A43053BBD2F832
:102E20009C303BBBD2F8943023BBD2F88C300BBB28
:102E3000D2F88430F3B9D36FE3B9536FD3B9E36EEB
:102E4000C3B9536EB3B9D36DA3B9536D93B9D36CF2
:102E500083B9536C73B96FF00B034049DA1781FBE8
:102E60000313C2EB6313246A04FB03F403F0F8FAC0
:102E70002046F8BD9B68002BF5D0002201E09B683E
:102E800043B159681046914201D90A4608469B68E9
:102E9000002BF4D10C38B0F5800F0346DDD8226A40
:102EA0002E4B02FB00F0A3FB00235C0903F0D8FAD1
:102EB0002046F8BD2A4B01219A6884F828105868EA
:102EC0000AB982089A605A261022202540272662D5
:102ED000802622644FF48072A5644FF4007519684F
:102EE00027654FF48067A6654FF4006622664FF4AD
:102EF0008052A5664FF40055A1F114032767A66719
:102F00004FF48047C4F880204FF40046C4F888503E
:102F10004FF480324FF400350344C4F890704FF4FE
:102F20008027C4F898604FF40026C4F8A02002223D
:102F3000C4F8A8500125A16363632261E060C4F86E
:102F4000B070C4F8B8605D606562656009F086FBCA
:102F50000CF0E0F9256355E7C00702201F85EB510F
:102F6000AC040220024A9369013B9361704700BFA1
:102F7000C007022003680B4A30B4044653F8085CCB
:102F8000506B10F83530012B03D9D16909B10139E3
:102F9000D1610022013B00F835301046226030BC80
:102FA000704700BFC0070220034B5B6B03EBC00000
:102FB00040680830704700BFC00702202DE9F0418B
:102FC00014460646884601F01FF8204600F0D6FE5B
:102FD000E8B9A7001B4D3B1905EB8303DA68B24241
:102FE00006D11B69434503D1BDE8F04103F038BA6F
:102FF0003B1905EB83035869D0B93C4405EB8404C5
:10300000E660C4F81080BDE8F04103F029BA0D4B2A
:1030100004EB840403EB840463689A685968C2EB88
:103020000802711A02F090FFBDE8F04103F018BAEF
:103030005B689A685968C2EB0802711A02F0E6FBF5
:10304000DBE700BFE4060220C3B2CAB29A1A92B20A
:1030500010B414B2002C1EDBC1F30722C0F3072307
:103060009B1A9BB21AB2002A12DB090C02FB02F275
:10307000C1EB104104FB042089B20CB2002C01DA30
:1030800049420CB2A1B25DF8044B01FB010070474C
:103090005B421AB2E9E7524214B2DDE700212DE9A2
:1030A000F041084682B000F0D9FE184F00F0ACFFA6
:1030B000042005F069FC164B43F6FF763D461B697C
:1030C000804634466846DA6C1B6D174416441D442E
:1030D0001C44ADF80070ADF80460ADF80250ADF8D6
:1030E000064008F089FC48B1234632462946384656
:1030F00004F0C2FF08F012FB0028F5D1404605F0AD
:1031000043FC03F0ADF902B0BDE8F08101C0FFFF60
:10311000E40000202DE9F047044682B00D46164633
:10312000002B37D09A46009651460B9B20462668C6
:103130000A9AB047074618B9384602B0BDE8F0878A
:1031400006F016FD618A8046384606F04DF8013DCE
:10315000384608F0C3F8404608F0C0F8002D1DDDE1
:103160004FF0000903E008F0B9F8013D16D054F81B
:103170001C6F0023CDF80090414620461A46B04708
:1031800006460028EFD1384606F03CFA304602B039
:10319000BDE8F08706F0FAFC8246C4E740461D21F0
:1031A00007F09EFEBAF1FF3FC6D000F02DFF06F0FB
:1031B00073FD60B9BA4502D0384607F0A3FF03F0AB
:1031C0004FF9384602B0BDE8F0870028F4D0FFF789
:1031D000EBFE80698742F8D1F1E700BF012B17DCD5
:1031E0002DE9F04107461C2090460D461E46FFF78C
:1031F00023FC0446D0B16DB1056100232046A661D1
:10320000A4F81480E76023606360A360BDE8F081E8
:1032100000207047074B53F826200AB9EDE71A46FD
:103220001368002BFBD113692361E6E70020BDE89A
:10323000F08100BF98080220012B3BDC2DE9F84308
:1032400081461C2090460F461E46FFF7F5FB0546BB
:1032500000287FD0414A002F31D00023DFF804E15D
:1032600052F8264003609EF8001007618E42866186
:10327000A0F81480C0F80C904360836002DB731CDC
:103280008EF80030002C5DD021464C68002CFBD11C
:10329000D9F80000CB681B6883422CDD096800293F
:1032A000F8D148B92E4B163628461A6842F82650EF
:1032B000BDE8F883002070472846BDE8F88352F83F
:1032C0002610002930D0084600E018460368002B7D
:1032D000FBD10069DFF88CE02B6028619EF80000CC
:1032E000AE618642A5F81480C5F80C906B60AB60A7
:1032F000CBDB0C46C3E70AD04B6843B31D606B6061
:103300008D4214BF0B4600234D602B60C9E7B8F116
:10331000010FF1D104E0DC68194623688342EBDB3E
:103320000B68002BF7D1E7E7DFF838E001609EF883
:10333000003086619E42A0F81480C0F80C90416075
:103340008160D6DA42F82650D9F80000A9E742F8A1
:103350002650D5E70020BDE8F88300BF980802207A
:10336000F400002091080220FFF704BB00283DD0A4
:1033700070B48469012C03DD0123184670BC7047CA
:103380001F4B1A78944221DA1E4D55F824300BB9A0
:1033900032E013465A68002AFBD1C268116802E085
:1033A0001B68002BE8D0DA6812689142F8DB10D075
:1033B0005A68F2B110604260984214BF1A46002267
:1033C000586000230260184670BC7047621C1A7077
:1033D000DAE7828A012AEBD104E0D6681346326824
:1033E0009142E5DC1A68002AF7D1E1E7012318468B
:1033F000704745F82400DFE745F82400BDE700BF2B
:10340000910802209808022000284DD02DE9F041B3
:10341000DFF89CE0254F9EF80060BC4601E028469E
:103420003DB384690568012CF9DCB44201DB661CFC
:10343000F6B257F824300BB933E013465A68002A25
:10344000FBD1C268116802E01B68002BE7D0DA6884
:1034500012688A42F8DC10D05A68A2B1106042604B
:10346000984214BF1A460022586002602846002D78
:10347000D7D18EF80060BDE8F081828A012A0CD095
:103480005A68002AEAD147F82400E9E7D2F80C800C
:103490001346D8F800208A42DEDB1A68002AF5D1EC
:1034A000DAE74CF82400BAE7704700BF980802201A
:1034B000910802200F4A816952F8213098420AD0BF
:1034C00042680AB103681360036803B15A600023BD
:1034D000036043607047036842F821302BB100223B
:1034E0005A604268002AEED1F0E74268002AEAD129
:1034F000EDE700BF980802200020704701280EDC8D
:10350000084B53F8200058B1C3681B681BB908E08A
:10351000C3681B6823B100680028F9D170470020F8
:10352000704770479808022000B970472DE9F041B4
:1035300082B01E4615460C460746FFF747FC02AB15
:10354000026843F8040D1846D2F80080FFF712FD18
:1035500033462A4621463846C04702B0BDE8F081CE
:103560002DE9F843074610F0A9F8DFF86C900744FE
:1035700010F0A4F8DFF864803E1A002E22DD00F07F
:10358000D3FAD9F800309E42A8BF1E4600F03CFD99
:10359000D8F80040FFF712FCB4B1254602F060FFF6
:1035A000013DFBD1304610F07FF800F02DFD013CCD
:1035B000FBD1FFF7D7FC02F053FF10F07FF83E1A63
:1035C000002EDCDCBDE8F883304610F06DF8FFF724
:1035D000C9FC02F045FFF0E7F80000206C0602206D
:1035E00020B3F0B50C4683B00546164600F00CFD3E
:1035F000D4B1204607F062FE074638B102462146A4
:10360000684603F08DFF684607F058FE32462146B3
:1036100047F6FF73284603F0CFF9384607F04EFE11
:1036200002F01EFF03B0F0BD2746EFE7704700BF72
:1036300008B100F001B870472DE9F04F89468BB012
:103640001546044603921F4600F0DEFCB9F900302F
:10365000B9F904100193CE1AB9F906300291B9F9FB
:1036600002B00136059300F09FFB15F00C0A0490A0
:1036700076D11FFA80FA484607F020FE02460490F1
:10368000A8B10199002506A82B4661F30F05029900
:103690006BF31F4561F30F030599069561F31F4313
:1036A0004946079303F03CFF06A807F007FE039B7B
:1036B0001FFA8BF503F003080AF1FF330393434627
:1036C000B0461E4615E0022E34D01EB9B9F80030BF
:1036D000ADF820302046594608AA554403F00AF9AF
:1036E00020463A46414604F0C7F80444ADB2237878
:1036F00073B33A464146204604F020F9BDF8042051
:10370000039B8346ADF820202046EB18BDF8082027
:103710005946ADF82250ADF82420ADF8263003F01C
:1037200061FE012ECFD1B9F804300133181AADF87B
:103730002000CFE7B9F90010B9F904305B1A181A64
:10374000013048BF013001EB6000ADF82000C1E757
:10375000049807F0B3FD02F083FE0BB0BDE8F08FD4
:10376000254600F051FC3A46314628464FF0000805
:1037700004F082F848B105443A46314608F10108A0
:10378000284604F079F80028F5D102F069FEBAF174
:10379000080F08D0BAF10C0F10D0BAF1040F02D004
:1037A000BDF810A067E7BDF810A0059B18FB0AF84C
:1037B0005D1CC8EB05050FFA85FB5CE7059B049AC9
:1037C000CBEB0303BDF810A0013308FB1238B8F1AE
:1037D000000FB8BF08F101080BEB68050FFA85FB75
:1037E00049E700BF2DE9F04F91B080461E460F46D5
:1037F000914600F009FC674B0EA81C68E56C246D2F
:1038000005EB080305EB0902E1193444079308921C
:1038100002910194ADF83830ADF83C20ADF83A1083
:10382000ADF83E4008F0E8F8002800F09780019BD2
:10383000029A1A99C2EB030B9DF86820C1F3072482
:103840001B99BBF1000F5B46C1F307271A99B8BF5C
:103850000BF101030BFB02FEC1F307401B995B1048
:103860009DF86CC0C1F307461A9903EB0E05090ECB
:103870000A950BFB04353C1B03940BFB0034301AF8
:103880000BFB01335E460B950D931B9B0C94C1EB18
:10389000136304900593C2EB0C03069300F062FAE5
:1038A0001A9B1B9A0990934269D0002E52D0029D18
:1038B000019A95425BDC0AAF86464FF0010B97E810
:1038C000800706E00BF1010B0135019BA646AB42D8
:1038D0002FDB70469AFBF6F499FBF6F197FBF6F3B3
:1038E00098FBF6FC2206059C43EA0C23A24442EA1C
:1038F0000144049A1C43029B9144069AAB4217442C
:10390000039A9044E0DA7445DCD005F00BF8BBF183
:10391000010FCBEB050105F1FF33089A079822D080
:1039200004F0AAFB0135019B4FF0010BA646AB4208
:10393000CFDA204604F0F6FFBBF1010F19D0019B4E
:10394000089ACBEB03010798013104F095FB099825
:1039500004F0E8FF07F0E2FE00289FD102F080FDAE
:1039600011B0BDE8F08F691E04F004FBACE704F071
:10397000D9FF089A0199079804F0FCFAE7E718467E
:1039800004F0D0FF019B089A0299079804F074FB99
:10399000DDE700BFF4000020F0B5144F83B0064609
:1039A0000D46144600F030FB3B686846196DDA6C32
:1039B0000E441544144433B2ADF80050ADF8044041
:1039C000ADF80230ADF8063008F016F850B13B689B
:1039D0002246314628465B6E1B68984707F09EFEDC
:1039E0000028F4D102F03CFD03B0F0BDF40000204B
:1039F00070B5134E82B005460C4600F005FB3368E7
:103A00006846DA6C1B6D15441C442AB223B2ADF82B
:103A10000420ADF80020ADF80630ADF8023007F014
:103A2000EBFF48B13368214628465B6E5B689847D8
:103A300007F074FE0028F5D102F012FD02B070BD4F
:103A4000F40000202DE9F04782B0044689469246F2
:103A5000984600F0D9FA1E4B68461F683E7EFD6C02
:103A6000013E3F6D2C445544B2B2B944B844A61A45
:103A70005119C2EB09034244ADF80060ADF80410DF
:103A8000ADF80230ADF8062007F0B6FFD8B109F165
:103A9000010708F1FF362A464946204604F06AFA33
:103AA0002A464146204604F065FA32463946204609
:103AB00004F0BAFA32463946284604F0B5FA07F05F
:103AC0002DFE0028E7D102F0CBFC02B0BDE8F08764
:103AD000F400002070B582B0064614460D4600F092
:103AE00093FA104B68461A68D36C126D1E44154445
:103AF000144433B2ADF80250ADF80640ADF80030D2
:103B0000ADF8043007F078FF40B122462946304630
:103B100004F08AFA07F002FE0028F6D102F0A0FCB9
:103B200002B070BDF40000202DE9F0410025124FD5
:103B3000124EDFF84C803C681CB1A047041C18BF33
:103B4000012405F099FE3368002818BF01244BB109
:103B5000984738B1D8F8003013B1012498473CB1E8
:103B60000125E8E7D8F80030002BF7D1002CF7D179
:103B70002846BDE8F08100BFBC080220C008022032
:103B8000B8080220F0B583B0074616461C460D461D
:103B900000F03AFA104B68461B68DA6C1B6D17444C
:103BA00016441D441C44ADF80070ADF80460ADF837
:103BB0000250ADF8064007F01FFF48B123463246D9
:103BC0002946384604F058FA07F0A8FD0028F5D138
:103BD00002F046FC03B0F0BDF4000020F0B583B065
:103BE000B0F90070B0F90260B0F90450B0F90640C5
:103BF00000F00AFA104B68461B68DA6C1B6D17441C
:103C000015441E441C44ADF80070ADF80450ADF8E6
:103C10000260ADF8064007F0EFFE48B123462A46A1
:103C20003146384604F028FA07F078FD0028F5D12F
:103C300002F016FC03B0F0BDF4000020002850D0C4
:103C4000C388013B10B5848880681F2B47D8DFE804
:103C500003F0162346314646463C4646464646460F
:103C600046404646464646464646464646464646FA
:103C70004610A31002FB031150F8210010BD02FBF7
:103C800004F200EBD104C843A35C00F0070023FA60
:103C900000F000F0010010BD02FB04F200EB910403
:103CA0006FEA4100A35C00F0060023FA00F000F088
:103CB000030010BD02FB04F200EB5104CB07A05C33
:103CC0004CBF00F00F00000910BD02FB0404605C53
:103CD00010BD631002FB031130F8110010BD00206D
:103CE00010BD7047034B082153F82000C3689B6A3E
:103CF000184700BF9808022010B500F085F904F0BD
:103D0000FBF904F099FB044602F0AAFB204610BD23
:103D100010B5044600F078F9054B002120461B68D9
:103D2000DB695B689847044602F09AFB204610BDA9
:103D3000F400002038B504460D4600F065F9064B46
:103D4000294620461B68DB695B689847044602F0F9
:103D500087FB204638BD00BFF400002008B105F005
:103D6000EDBE704710B500F04FF904F0CDF904F046
:103D700063FB044602F074FB204610BD012801D904
:103D800000207047014B53F820007047880502203F
:103D900010B500F039F9034B1B681C7C02F060FB86
:103DA000204610BDF400002010B500F02DF9044BA2
:103DB0001B68DB695C7E02F053FB204610BD00BF30
:103DC000F400002070B504460E46154600F01CF9BC
:103DD000204631462A4604F005FA044610B1002375
:103DE00033602B6002F03CFB204670BD38B50546C1
:103DF0000C4600F009F9064A064BB2F90020B3F967
:103E000000302A602360BDE8384002F029BB00BFC3
:103E10008608022088080220044B342235206121C4
:103E20009A70187018461971DA707047DC0000201B
:103E3000027EC07E02FB00F0704700BF024B53F8C9
:103E400020301B691868704798080220024B53F80D
:103E500020301B69586870479808022038B505461D
:103E60000C4600F0D1F8044B1B685D849C8402F082
:103E7000F7FA002038BD00BFF400002090B583B0F1
:103E800000AF544A534B1B6823F001031360524B9D
:103E90001B68C3F30A0340F2494293420CBF01235B
:103EA0000023DAB24C4B1B68C3F30A0340F25141C2
:103EB0008B420CBF01230023DBB21343DBB2194654
:103EC000454B1B68C3F30A0340F2524293420CBFB6
:103ED00001230023DBB20B43002B10D03F4B012208
:103EE0001A6000BF3D4B1B68002BFBD13C4B3D4A89
:103EF0001A603B4B1B683C4A934218D0FEE73B4B91
:103F00001B68C3F30A03B3F58A6F10D1384B012243
:103F10001A6000BF364B1B68002BFBD1354B314A72
:103F20001A60344B1B68304A934200D0FEE702F01F
:103F30009FFC314B2E221A700FF0C4FB2F480CF05F
:103F40001DFD0EF0DBFA786004F0C6F90346002B85
:103F50000CBF01230023DCB204F004FA0346002B5B
:103F60000CBF01230023DBB22343DBB2002B09D0BB
:103F700004F0C8F9044604F00BFA0346194620463B
:103F800004F0FCFC0021002001F0EEFF06F0E2F955
:103F9000FEF7ECFB1A4B1B68002B12D00DE0184B00
:103FA0001B681B68002B03D0154B1B681B689847C8
:103FB000134B1B685B68124A1360114B1B68002B84
:103FC000EDD1104B01221A707B6818460C37BD46A4
:103FD00090BD00BF002000E0002004E00830024057
:103FE00000300240C2A507F4CDB5E8B50010005C72
:103FF000084C0258004C025884080220C0040220D9
:1040000038050220900802202DE9F041224D6B680E
:1040100023B10FF04FFBAB68984204D00FF06CFB5C
:104020000FF048FBA8606B680133012B6B6001D077
:10403000BDE8F081194F3B68002B28DD002426469F
:1040400005E03AB301363B687C349E421FDA0FF03C
:1040500031FB2B681A5923449042F2D17B68B3425A
:10406000E6D0002B10DBC3EB43132A6802EB830876
:10407000FFF742FA2A680A4B1444C8F87800221D58
:10408000A06F1A60FFF7C0F97E60BDE8F0810024E0
:104090002646E3E71860E1E7680602208801002071
:1040A000F400002010B582B028B9134B1B681C6EB9
:1040B00014B902B010BD0446FFF7A6FF2046FEF774
:1040C00085FE02AB446943F8080D1846FEF752FF1F
:1040D0001CB902F0C5F902B010BD204602ACFEF7D3
:1040E00075FE826844F8040D936898472046FEF7F1
:1040F00041FF02F0B5F9EEE7F400002000B9704787
:10410000014A114600F002B801F0FFFF2DE9F04727
:10411000DFF8F88084B00C4615460646FFF774FFBA
:10412000002001F0E1FED8F80030814630461F6ED5
:10413000FEF74CFE03680090986901F09DFE324B3B
:1041400082469C42009B53D01A895B89013AADF8A4
:104150000840013BADF80A5022442B44ADF80C2036
:10416000ADF80E3005F07EF86846FEF703FF02A8B2
:1041700007F042FC48BB504601F07EFEFFF744FFCB
:10418000002F3DD0D8F800301B6EB3BB05F0FAF914
:104190003846FEF71BFE04ACD8F8003044F80C0D8E
:1041A0001F660068FFF7E2F82046FEF7E3FE04F022
:1041B00071FC04F0A9FB02F053F9484601F094FEAB
:1041C00002F04EF904B0BDE8F0872A462146304699
:1041D00000F0B0FC07F0A2FA0028CCD02A46214615
:1041E000304600F0A7FC07F099FA0028EDD1C2E7AD
:1041F000B3F90440B3F90650A6E701F02FFEC5E776
:1042000001F02CFED7E700BF01F0FFFFF400002013
:104210002DE9F04385B00646904699460F46FFF7D4
:10422000F3FE1C4A1C4B1268507C53F8204001E0FE
:104230002468FCB1E3681A68042AF9D1DB6A012119
:10424000204698470546D8B12469A36898470130AD
:1042500018D00C994B460294424600913046019585
:10426000394600F0E3FA044602F0FAF8204605B0B9
:10427000BDE8F083FFF742F9044648B1C368DDE7C3
:104280000446F1E70C9B054C43F001030C93E0E777
:104290002046ECE7F400002098080220C4F9010849
:1042A00000B9704710B582B00446FFF7ADFE104B61
:1042B0001B681B6E9C4217D02046FEF787FD4369A2
:1042C000019063B90068FFF74FF801A8FEF752FEAE
:1042D0002046FEF72FFB02F0C3F802B010BD1846CF
:1042E00002F0A4F80198EDE701F0B8FDE4E700BFA3
:1042F000F40000202DE9F04F87B0044692461D4699
:104300008946FFF781FE574B1A68574B577CDB579E
:104310003846012B40F39A8003F0E4FF0646384606
:1043200004F026F80746002C00F08D8005A904A8AB
:10433000FFF75CFD049A059B1644B4F900201F4466
:10434000B4F9023022EAE272013E23EAE373013F4C
:10435000114602921846B4F9042003939642D4BF42
:10436000C1EB0601C1EB0201B4F9063002460E466C
:104370009F42D4BFC2EB0702C2EB030201361746CD
:10438000013705B97D42002E4FDD002F4DDD109B1A
:104390003246039900932B460298FFF739FF804677
:1043A000002848D000F098F88742064604D02D4BEC
:1043B0001B68986C002851D140463D460024DFF828
:1043C000ACB000F095F90EE0AD1BACB950463444EA
:1043D000C847DBF80030FF2003B198474046FFF79D
:1043E0008DFEA74212DDAE42EEDD2946404600F0CA
:1043F0005FF9AD1B002CE9D0039B404602991A19C6
:1044000000F0A6F94046FFF74DFEDFE74046FFF714
:1044100047FF002000F06CF9B74206D0114B1B6833
:10442000986C10B1332108F02BF802F019F8002035
:1044300007B0BDE8F08F5046C84702F011F80120E0
:1044400007B0BDE8F08F039402949AE703F0F4FEFE
:104450000646384603F01AFF074664E7322108F0A3
:104460000FF8A9E7F400002094080220AC0602200F
:1044700030B5044683B098B1FFF7C6FD2046FEF77D
:10448000A5FC036802AD1B6945F8040D9B689847BD
:1044900004F020FC04462846FEF76CFD01F0E0FF26
:1044A000204603B030BD00BFA0B110B5044682B0B5
:1044B000FFF7AAFD2046FEF789FC02AB00F11804C5
:1044C00043F8040D1846FEF755FD01F0C9FF2046DC
:1044D00002B010BD704700BF10B5044682B0FFF7B0
:1044E00093FD7CB12046FEF771FC02ABB0F90A40A7
:1044F00043F8040D1846FEF73DFD01F0B1FF2046DC
:1045000002B010BD044B1B681C6E002CEAD101F0F8
:10451000A7FF204602B010BDF40000202DE9F04FA7
:10452000804687B0002758E0002E7ED105F02EFB94
:10453000804500F09A80584B012649462246029356
:104540005846564B009601932B4600F06FF9814672
:104550004046FEF73BFC03460590C0F82490B9F1B5
:10456000000F79D0826A05A8DFF840B142F48032AA
:104570009A62FEF7FFFC484600F0BAF882463046E1
:10458000474E01F0C5FF4846FFF78EFF454B05FB40
:1045900004F2454C197892003568A84740462568D2
:1045A000CBF8008005F0C4FB2060404607F03AFEDF
:1045B000002225601046CBF8002001F0A9FF5046EC
:1045C00000F096F84046FEF7EFFC406AB0FA80F340
:1045D0005B090137042F22DC0BB34046FEF7F6FBE4
:1045E000034605A8B3F900B0B3F90290B3F904404B
:1045F000B3F90650CBEB04040593C9EB05055E6ADD
:104600000134FEF7B7FC0135002DC8BF002CD4BF24
:104610000123002388DC01370020042FDCDD08B1F2
:1046200000F0D2F807B0BDE8F08F3046FEF7CEFBC1
:10463000034606A8B3F9065040F8083DB3F9044014
:10464000FEF798FCA94501D1A345BBD04A4659467F
:10465000304600F07DF8B5E705A8FEF78BFC404634
:1046600007F0E0FD33464846B3E703F01FFE064679
:1046700003F062FEB44202DC85427FF75CAFB442D5
:10468000A8BF34468542A8BF0546214640462A4673
:1046900006F0E2FD4FE700BFC4F90108189B0208CD
:1046A00094010020B0060220BC070220400C02202A
:1046B00030B50D4683B028B90C4B1B681C6E14B97D
:1046C00003B030BD0446FFF79FFC2046FEF77EFB9B
:1046D000B0F90A300190AB42C8BF458101A8FEF78E
:1046E00049FC01F0BDFE03B030BD00BFF400002066
:1046F000F0B5164F83B00446FFF786FC3B681E6E8C
:10470000E4B1C6B904F03EFF2046FEF75FFB02AD00
:104710003B6845F8040D1C660068FEF727FE284636
:10472000FEF728FC04F0B6F904F0EEF801F098FE6C
:10473000304603B0F0BD01F091FBE3E701F08EFBE2
:1047400001F08EFE304603B0F0BD00BFF400002043
:1047500070B50D4682B0164628B91A4B1B681C6E00
:1047600014B902B070BD044636B22DB2FFF74CFC4E
:104770002046FEF72BFBC6808580009004F0C4F82D
:10478000009B586930B96846FEF7F4FB01F068FEFB
:1047900002B070BDFEF71AFB009B0190B3F9082030
:1047A000B3F90A308280C38013B10AB10580468014
:1047B00001A8FEF7DFFB6846FEF7DCFB01F050FEC8
:1047C000E6E700BFF400002000B9704770B504466A
:1047D00084B0FFF719FC2046FEF7F8FA014601A85D
:1047E000B1F90460B1F906500A894B89324401914C
:1047F0002B44ADF80860013AADF80A50013BADF822
:104800000C20ADF80E30FEF7B5FB02A807F0F4F867
:1048100040B12A463146204600F06EF906F07EFF90
:104820000028F6D101F01CFE04B070BD2DE9F04F58
:10483000DFF82C8187B082468B46D8F800001746F7
:104840001E461299437C00221198FEF7C7FC0028EF
:104850004DD0036905469B68984704F03BFA00FB7E
:1048600007F48146FEF7C6FA109B073413F00103E4
:104870004FEAD4043FD0002E2CDD002B42D004FBA5
:1048800006F01830FDF7FEFF024668B300230293DE
:1048900010460392FEF79AFA029A034606A8A3F876
:1048A00004A0A3F806B01F815E81DC60C3F81090FD
:1048B0005A6140F8043D1D60FEF75CFB129AD8F87F
:1048C00000302A61039A1046AA605B7CAB6107B096
:1048D000BDE8F08F002C34D1204676428642A8BF36
:1048E000064693B3002ECADC2846FEF73DFD0020A5
:1048F00007B0BDE8F08F0028B8BF0330801000EB90
:104900004000B8E700933A4633465946504601F016
:10491000FDFC029004FB06F01830FDF7C1FF0246D3
:104920000028B5D128460392FEF71EFD029B002BFE
:10493000DDD01846FDF7FEFF039A104607B0BDE82C
:10494000F08F1838B0FBF4F0C7E700933A463346CF
:104950005946504601F0DAFC002E0290DADCC3E73B
:10496000F40000202DE9F04FDFF880918BB05D4B13
:10497000D9F800C0DFF878819CF811E053F82E4098
:10498000D8F80030D4F810E0002B00F0A6801646CE
:10499000DCF8602007460D46002A75D0E2681268F0
:1049A000072A78D0504AC2EB0E02B2FA82F25209BC
:1049B000002A70D03846FEF709FA03460AA8B3F970
:1049C00008B040F8083DB3F90AA00BEB0504DB681A
:1049D000013C0593FEF7CEFAD9F80010B1F90C307E
:1049E000B1F90800E41A002CCCBFC4EB0B045C4600
:1049F00085425EDB0023002C43DD0AEB0600B1F9A3
:104A00000EE00138CEEB00000028C8BFC0EB0A0A58
:104A1000B1F90A00B04247DC0021BAF1000F079358
:104A200006912EDD3846FFF73FFD079BD9F80020A1
:104A3000069901FB0B31136E00EB8107002B3CD074
:104A40001846FEF7C3F902460AA8B2F90410B2F9F3
:104A500006306D1A40F8042DF31AA900D56801F14B
:104A6000180605FB03661644FEF784FA4EB1059B53
:104A7000224600953946019330465346D8F8004007
:104A8000A0470BB0BDE8F08FE2681268B2FA82F27C
:104A90005209002A8ED173463246294638460DF017
:104AA00033FB0BB0BDE8F08F811B0646C1EB0A0A51
:104AB000B3E7431B0546E41A9DE7507C4FEA8B029F
:104AC000DFF830E03B4602922946CDF804A032469A
:104AD0000094DEF80040A047D3E773460DF014FBC6
:104AE000CFE700BF98080220C4F90108F4000020B5
:104AF000A4080220A00802202DE9F04182B00F4650
:104B000090460646FEF762F9034602AC16211D6880
:104B1000002044F8043DEB685B6A98470546204650
:104B2000FEF728FA1DB1424639463046A84702B082
:104B3000BDE8F08100B970472DE9F04FA3B08B4676
:104B400092460446FEF742F922AB456943F81C0D34
:104B50001846FEF70FFA2046FFF78AFC0828814620
:104B600040DD002D3ED12046FEF730F922AA034653
:104B7000B0F9081042F8100D10460D92B3F90A2052
:104B80000A9109921968DA680E690B930E92FEF782
:104B9000F1F9924892490068D6F80480407C51F8B7
:104BA00020100D692B680C93FFF79CF808280B9BCD
:104BB00014D910288BBF20221022042702270B9221
:104BC000AE4200F0F882B9F1200F00F0B381B9F1E4
:104BD000100F00F0458123B0BDE8F08F08220127B7
:104BE0000B92EDE70021012320467C4E20910DF130
:104BF00088080B9121930A93FEF7E8F8074630687E
:104C00003A68FB68B7F908101269139314913B696D
:104C1000B7F90A10407C0993169148F8147D55683D
:104C2000D7F81490FFF75EF832680E90507CFFF7CB
:104C30000DF907464046FEF79DF9099A0A9B082A96
:104C40000B9940F29D80102A13460A918CBF0423D1
:104C500002230C93BD4200F0C1813368587CFFF7FA
:104C6000EDF8149B06469800FDF70CFE1090002806
:104C7000B1D02046FFF718FC0446B9F1000F00F050
:104C800088804846FEF7A2F8169B1E90002B40F342
:104C9000A1810023DDF83880CDF834A00B93139B5D
:104CA000CDF848B0E31815931FAB19460F938368EE
:104CB00000225B691F920B9A9847159B139A044632
:104CC0009B1A0E93149B834200F0F680099B012BE4
:104CD00000F08880002842D01CAB11931098FEF79A
:104CE00075F8099B07461C90082B1F9A65D90C9BE9
:104CF000A3460E99824602FB031939F8020BA84716
:104D0000B047BBF1010B4AF8040BF6D1B8F11F0F05
:104D100004D838464246214601F010FC0A99012386
:104D20001F982246059112991C9F08440021019367
:104D300000930391CDF808800D99049702F094FF39
:104D40001198FEF717F91F9B1E981C440B9A836855
:104D50000F991F945B69984704460028BED1159AA5
:104D600013990B9B0A44013315920D9A0B93013250
:104D70000D92169A9A4200F02D811E980F9996E78F
:104D8000012A03D120AB0C920A9363E70C930A919A
:104D900060E701250A9B139A0999059304905846E8
:104DA000039202915146169B149A0195009502F0C8
:104DB0005BFF1098FDF7BEFD0DE70C9BA2460E9918
:104DC000814602FB031B1BF8010BA847B047BAF151
:104DD000010A49F8040BF6D198E700BFF40000205F
:104DE000980802200028BAD0CDF8608019960B9F51
:104DF0000A9EDDF83880DDF83490DDF848A0DDF853
:104E00003CB017951192DDF87CE02246119D0123FC
:104E10000EF0070049460395012506900AEB0E00A7
:104E2000BEF1000F05960295B8BF0EF1070E019571
:104E3000009508EBEE0ECDF810E003F03DFE1F9B51
:104E40001E983A461C44594683681F945B699847EC
:104E500004460028D7D1179DDDF86080199E7EE7B3
:104E60000A9B03FB07F0FDF70DFD109000283FF4AF
:104E7000B2AEFDF7ABFF20902046FDF7A7FF00F193
:104E800018031E900E932B69002B00F0A681736906
:104E9000002B00F0A281B0F908008000FDF7F2FCC1
:104EA0001190002840F0BA811F900D98FEF762F82B
:104EB00020A8FEF75FF87CE71098FDF787FF099BB5
:104EC00081461C90082B149F0446DDF838A028D991
:104ED0003AF8020BA847B047013F44F8040BF7D15A
:104EE000B8F11F0F04D848464246149901F026FB3A
:104EF00022AB12980D991A460A9B0593002303933F
:104F0000012352F818EDCDF8088017460193149A42
:104F10000093CDF810E002F0A7FE3846FEF72AF81D
:104F20001DE71AF8010BA847B047013F44F8040BEE
:104F3000F7D1D5E70A9B07FB03F0FDF7A3FC0E9022
:104F400000283FF448AEFDF741FF20902046FDF7D2
:104F50003DFF1E902C6900F11808002C00F0EB803A
:104F60000A9A5C4601260A954FEA82099346CDF8D3
:104F70003090DDF8249017E0042F21D0012F15D0B8
:104F80000B9B0020209D51460293012305905A4619
:104F90000390204601969A440096049502F064FE20
:104FA000B9F1010900F0E880022FE5D10C9D4046DF
:104FB0003B465A46A8440A9D20992D69A847DFE739
:104FC0000C9B40460A9D5A46984420993B462D69C1
:104FD000A847D5E71EA8FDF7CDFFEAE62046FFF774
:104FE00063FA8046B9F1000F00F0D4804846FDF71F
:104FF000EDFE169B1E90002B40F3C88000261FABD1
:10500000CDF834A00125B146DA461F468368324602
:10501000CDF87C9039465B699847149B04468342DF
:1050200031D0099B012B57D020B30D9B0B9603EB7E
:10503000060B1F9801230C990A9A01FB008E099E0A
:10504000139950440592224603915946CDF810E039
:1050500002960195009502F007FE1F9B1E983946A7
:105060001C440B9A83681F945B6998470446002888
:10507000DFD10B9E139B01369844169BB34240F33D
:1050800085801E98C2E7CDF82C80B346984600E094
:10509000A3461E980BF101043946836822465B69DA
:1050A00098478045F4D00A9AC6EB0B03DDF82C80B4
:1050B0005046059201330D9ACDF810809119139E38
:1050C000099A039602920195149A06FB03880095AB
:1050D000264602F0C9FDD0E70028CBD00D9B0B96E9
:1050E00003EB060BDDF87CE022460A9E01230EF05E
:1050F00007005946059606900AEB0E00BEF1000F18
:10510000139E0295B8BF0EF1070E0396019508EBAA
:10511000EE0E0095CDF810E003F0CEFC1F9B1E981C
:1051200039461C440B9A83681F945B699847044670
:105130000028D7D19DE7A1460125099E0123022F12
:1051400051460A9A58460AEB030E00F0A981042F33
:1051500000F07D819F4200F052810B9CF246CDF819
:1051600014900294209CCDF80C9001950095049425
:1051700002F07AFD013EE1D10D98FDF7FBFE20A87B
:10518000FDF7F8FE0E98FDF7D5FB24E51EA8FDF708
:10519000F1FE20E501240A9B139A099905930490D6
:1051A0005846039202915146169B149A019400941A
:1051B00002F05AFD0FE50E9A0124183300250392E0
:1051C000514604935846099BCDF808900A9A0595D4
:1051D0000194009402F048FDFDE40125DDF82890DB
:1051E000099E0123022F51464A4658460AEB030EF8
:1051F00000F0D480042F00F0A0809F426DD00024E6
:1052000001950095F246059403940B9C0294209C12
:10521000049402F029FD013EE3D146E6FDF7D6FDF8
:105220001F9000283FF441AE0A9A0124CDF828B01F
:105230004FEA420990460C95CDF83C90B146DDF816
:1052400038B017E0042F2ED0012F28D00B9B002060
:10525000209D5146029301230590424603909A44B3
:10526000019400940A98049502F0FEFC099B013B0E
:1052700009932BD0022FE5D1209B1E463B46424688
:105280001F995846D9F81450A8470F9D31463B4600
:10529000AB440C9D42461F982D69A847D6E7209B3A
:1052A0001E460223EBE7209B42460F9E58461D46B2
:1052B0001F990223B344D9F81460B04729460C9DC6
:1052C0003B4642461F982D69A847BFE71FA8FDF738
:1052D00051FE1198FDF72EFBE7E50A9B444609961F
:1052E0005D000C9E0C95209DDDF83880DDF828903F
:1052F00038F8020BA047B047B9F1010905F8010BD6
:10530000F6D10E9D01230B985146AE460C9D02909E
:105310005846AE44209DCDF814909A440A9ACDF890
:105320000C90019700970495CDF838E002F09CFCB2
:10533000099B013B0993D6D1B7E50A9B0125099644
:1053400044465E000C9F0C96209EDDF83880DDF808
:10535000289038F8020BA047B847B9F1010946F880
:10536000040BF6D10E9E01230B985146B6460C9EB7
:1053700002905846B644209ECDF814909A440A9A5A
:10538000CDF80C90019500950496CDF838E002F028
:105390006BFC099B013B0993D6D186E50A9B01254D
:1053A000099644465E000C9F0C96209EDDF83880DE
:1053B000DDF8289038F8020BA047B847B9F1010989
:1053C00026F8020BF6D10E9E01230B985146B646E5
:1053D0000C9E02905846B644209ECDF814909A44F4
:1053E0000A9ACDF80C90019500950496CDF838E016
:1053F00002F03AFC099B013B0993D6D155E5950093
:105400000C9C09960C95209D4646DDF8289056F890
:10541000040BA047B9F1010905F8010BF7D10B986E
:105420000123209E514602905846CDF814909A448C
:105430000A9ACDF80C900197009704960C9D02F003
:1054400013FC099BA844013B0993DCD194E609961F
:10545000012596000C9C0C96209E4746DDF828906E
:1054600057F8040BA047B9F1010946F8040BF7D12E
:105470000B980123209F514602905846CDF8149076
:105480009A440A9ACDF80C900195009504970C9EC9
:1054900002F0EAFB099BB044013B0993DCD16BE6C7
:1054A0000996012596000C9C0C96209E4746DDF837
:1054B000289057F8040BA047B9F1010926F8020B10
:1054C000F7D10B980123209F514602905846CDF802
:1054D00014909A440A9ACDF80C900195009504977F
:1054E0000C9E02F0C1FB099BB044013B0993DCD147
:1054F00042E600BF094B1A6A002A18BF002003EBDE
:10550000800210B49469002C04DB4FF0FF3443F8A0
:10551000201094615DF8044B704700BF5C050220C9
:1055200058B311B30AB3B1F90030F0B5B2F9005075
:10553000B2F902E0B1F902409D42B2F90470B2F949
:105540000660A8BF1D46B1F904207445B1F90630C4
:10555000A8BF7446BA420580B8BF3A46B3424480F9
:10556000B8BF33468280C380F0BD002908BF114612
:105570000A684B68026043607047704778B189B22F
:10558000C38892B270B40688448885880E44144457
:105590001A442944068044808180C28070BC7047D0
:1055A00070B4124D04462B686A6893420FD0104EB7
:1055B000B34293E8070014BF0C333C3B84E8070078
:1055C0002B60207A003070BC18BF01207047094A58
:1055D000934204D013E9070084E80700F1E73C3365
:1055E00093E8070084E80700EBE700BF9C02002077
:1055F0006C07022030070220034B09CBC01AB0FA17
:1056000080F04009704700BF9C020020F0B53C4E7E
:1056100085B00446336D002B55D03A4A01AD3A4966
:10562000F36C116094E8070085E807000BB1284689
:105630009847364F3C687B689C4232D0B342304A30
:1056400032D09DF80C00A3F10C0113F804EC8C4649
:10565000864535D18C4233D091423BD002F13C0E8D
:1056600011F8042C82423DD0734595E8070083E889
:1056700007000BD00C339C427B600BD0B36C0BB19A
:105680002846984700F0A0FC05B0F0BD1C4B9C429A
:105690007B60F3D11E4B9C4214BF0C343C3C3C60FD
:1056A000ECE7DFF86CE0DFE79DF80C0096F84420AB
:1056B00082421DD106F13C0E744519D07146CFE7E8
:1056C00002F13C0ED0E7134B304640F8503F02F059
:1056D00053F8A2E791F8442001F13C0E8242C3D175
:1056E0006346C1E7B34208D0A3F10C0C6346BBE7A5
:1056F00095E8070086E80700BCE7054BB4E700BF64
:10570000300702204C0C0220ED9D00089C02002076
:105710006C070220910E010810B5FEF775FC0D4ACA
:10572000136851688B420FD00B4CA3424FF0010419
:1057300093E8030014BF0833503B136005F0CEFA22
:1057400000F08EFE204610BD002400F089FE2046A9
:1057500010BD00BF800100204C060220F0B5164CA1
:10576000059F2568069CB5F908E0B5F90C60704501
:10577000B8BF7046B242A8BF324690421ADCB5F9B3
:105780000A60B5F90E50B142B8BF3146AB42A8BF6E
:105790002B468B4203DAF0BD25682DB12C46E56817
:1057A0002D6835F00405F7D106940597BDE8F04063
:1057B00002F04CBFF0BD00BFF4000020B0F90220A1
:1057C000B1F906309A4214DCB1F90220B0F9063082
:1057D0009A420EDCB0F90020B1F904309A4208DC9C
:1057E000B0F90400B1F900308342CCBF00200120A1
:1057F00070470020704700BF08B5034B0146742274
:105800001868FAF7A0FD08BDF400002000B9704741
:105810002DE9F04F0446ABB00D4616461C921B9185
:10582000FEF7F2FB2046FDF7D1FAB0F90430046828
:105830009D422790119400F05A810020FEF758FFF6
:10584000AE4B119A1B689269597C1F900846279DA0
:1058500019928242209118BF5A74B5F90430B5F9F3
:10586000062019460793B5F90830104612925B1AC4
:10587000B5F90A201C46121A0893164613922246BE
:105880002B8A01329B071A92324602F101021D92C5
:1058900040F10E811B9B6A695B1A0392002B1C9AD4
:1058A0001493A2EB000440F3A78109934FF0010B7E
:1058B0000023DDF868901093002C40F3A8811D9B15
:1058C0004FF0000A1794169301231593119E8C4BE9
:1058D000B0691B56012B40F389810023ADF8A2303B
:1058E000ADF8A03002F0FEFC431EB069ADF8A43064
:1058F00002F03EFD0138ADF8A60027985A4600F1A7
:10590000140107F051FD2190002800F0D080279865
:105910005A4600F1140107F047FD2390002800F0DB
:10592000C180279BD868002840F08181169A524593
:1059300000F0B4801A9B10999A00CDF810900AFBE1
:105940000313C4EB0A01D946229005EB83030D91A2
:1059500015990E93129B01FB02F223441E92189399
:105960004FEA8B03D3460593179B139A5B45109C14
:10597000CCBF002301235A45B8BF00230B93129BD1
:105980005B440F93189B5B440A93049B1A46A24204
:1059900075D01498079BC0EB040A0E9D03440C932A
:1059A0005A4621460398FEF749F9030E06465FD092
:1059B000099B089AA3420799CCBF00230123A24266
:1059C0000C9A214402EB0407BDF9A020B8BF0023C4
:1059D0000691BA420B9903EA01030DDCBDF9A2203E
:1059E0000A98824208DCBDF9A420BA4204DBBDF962
:1059F000A620824280F2A9804FF00008002B00F020
:105A00008580BAF1000F09DB0D9B002B06DB1A46DF
:105A100051460398FEF712F9030E77D0BDF9A03076
:105A20009F4223DBBDF9A2300A9883421EDCBDF9F8
:105A3000A430BB421ADBBDF9A630834216DB3046E8
:105A4000304B229EFF221B6846F07F419847199AEF
:105A50002D4B53F822301B691B689847219B024647
:105A60000A9900933846119B0BF0F2FFC5F820808D
:105A7000059B4C44CA441D44049BA34290D10E9BF9
:105A80001E99159A0B4493440E930D9B1946169B31
:105A900011445B450D917FF467AF279B23991868EC
:105AA0000BF09EFC279B219918680BF099FC279D11
:105AB0001B991A9B1C980B44A980421E1D99013BFF
:105AC000E8800A442B81199B6A811946209A9142E9
:105AD00002D00A4B1B685A741F98FEF709FE27A8CC
